:020000040000FA
:0400000000EF08F015
:020004000000FA
:0400080004EF08F009
:0400180006EF08F0F7
:0410000007EF08F0FE
:0810080035EF08F0100011ECB7
:1010100008F01CEC08F0230E006E2CEC08F00BEF2F
:1010200008F00F0EC16E926A946A956AFF0E936E75
:10103000900EF26E12001200C66A948E949CE10E1D
:10104000AF6E040EB06E240EAC6E900EAB6E080E3A
:10105000B86EAE50AE501200ACA22CEF08F000C03B
:0C106000ADFF1200120012001200100080
:020000040030CA
:0100000024DB
:010001000EF0
:010002003FBE
:010003001EDE
:010005008179
:010006008178
:010008000FE8
:01000900C036
:01000A000FE6
:01000B00E014
:01000C000FE4
:01000D0040B2
:00000001FF
