:020000040000FA
:0400000000EF08F015
:020004000000FA
:0400080004EF08F009
:0400180006EF08F0F7
:0410000007EF08F0FE
:0810080049EF08F01000000E92
:10101000066E11EC08F01AEC08F026EC08F00BEF65
:1010200008F00F0EC16E926AFF0E936E956A900ED5
:10103000F26E12008150F00B06E0006E003A005094
:101040001008016E120080921AEF08F000C002F042
:10105000808231EC08F001C002F0809231EC08F09F
:101060001200080E036ED10E046E200E056E3CECCD
:1010700008F00206F8E1120004C0D7FF05C0D6FF51
:1010800003C0D5FFD58EF2A443EF08F0F294D59EAD
:101090001200062A0650066E06C083FFF292100068
:020000040030CA
:0100000024DB
:010001000EF0
:010002003FBE
:010003001EDE
:010005008179
:010006008178
:010008000FE8
:01000900C036
:01000A000FE6
:01000B00E014
:01000C000FE4
:01000D0040B2
:00000001FF
