:020000040000FA
:0400000000EF08F015
:020004000000FA
:0400080004EF08F009
:0400180006EF08F0F7
:0410000007EF08F0FE
:0810080049EF08F01000000E92
:101010000B6E11EC08F01AEC08F026EC08F00BEF60
:1010200008F00F0EC16E926AFF0E936E956A900ED5
:10103000F26E12008150F00B06E0056E053A055085
:101040001008066E120080921AEF08F005C007F033
:10105000808231EC08F006C007F0809231EC08F095
:101060001200080E086ED10E096E200E0A6E3CECBE
:1010700008F00706F8E1120009C0D7FF0AC0D6FF42
:1010800008C0D5FFD58EF2A443EF08F0F294D59EA8
:1010900012000B28000F07000B6E836EF2921000F7
:020000040030CA
:0100000024DB
:010001000EF0
:010002003FBE
:010003001EDE
:010005008179
:010006008178
:010008000FE8
:01000900C036
:01000A000FE6
:01000B00E014
:01000C000FE4
:01000D0040B2
:00000001FF
