:020000040000FA
:0400000000EF08F015
:020004000000FA
:1010000008EC08F00EEC08F01AEC08F002EF08F01B
:101010000F0EC16EFF0E936E926A12008150F00B9C
:1010200006E0506E503A50501008516E12008092F7
:101030000EEF08F050C052F0808225EC08F051C04D
:1010400052F0809225EC08F01200080E536ED10E7B
:10105000546E200E556E30EC08F05206F8E1120086
:1010600053C0D5FF54C0D7FF55C0D6FFD58EF2A4CC
:0A10700037EF08F0F294D59E12004D
:020000040030CA
:0100000024DB
:010001000EF0
:010002003FBE
:010003001EDE
:010005008179
:010006008178
:010008000FE8
:01000900C036
:01000A000FE6
:01000B00E014
:01000C000FE4
:01000D0040B2
:00000001FF
