:020000040800F2
:1000000098060020B5010008BD010008BF010008E6
:10001000C1010008C3010008C5010008000000007C
:10002000000000000000000000000000C701000800
:10003000C901000800000000CB010008CD01000844
:10004000CF010008CF010008CF010008CF01000850
:10005000CF010008CF010008CF010008CF01000840
:10006000CF010008CF010008CF010008CF01000830
:10007000CF010008CF010008CF010008CF01000820
:10008000CF010008CF010008CF010008CF01000810
:10009000CF010008CF010008CF010008CF01000800
:1000A000CF010008CF010008CF010008CF010008F0
:1000B000CF010008CF010008CF010008CF010008E0
:1000C000CF010008CF010008CF010008CF010008D0
:1000D000CF010008CF010008CF010008CF010008C0
:1000E000CF010008CF010008CF01000800F002F89E
:1000F00000F050F814A696E8000CB244B344DA4578
:1001000001D100F047F8BAE80F000FA696E83000DA
:10011000A5EB040504EB0607AAEB0704A7F101070A
:100120004FEA15154FEA3414A4F10104AC4201D38F
:1001300000F030F813F0010F18BFFB1A43F0010371
:1001400000F001F8DBE71847C8070000E8070000E7
:10015000103A24BF78C878C1FAD8520724BF30C8F3
:1001600030C144BF04680C60704700007047000055
:100170000023002400250026103A28BF78C1FBD8B0
:10018000520728BF30C148BF0B6070471FB51FBD65
:1001900010B510BD00F031F81146FFF7F7FF00F081
:1001A000CBFA00F04FF803B4FFF7F2FF03BC00F006
:1001B00057F800000948804709480047FEE7FEE776
:1001C000FEE7FEE7FEE7FEE7FEE7FEE7FEE7FEE707
:1001D00004480549054A064B704700006D050008B4
:1001E000ED000008980000209806002098020020EA
:1001F00098020020704770477047754600F02CF851
:10020000AE4605006946534620F00700854618B003
:1002100020B5FFF7DDFFBDE820404FF000064FF0AE
:1002200000074FF000084FF0000BAC46ACE8C009E7
:10023000ACE8C009ACE8C009ACE8C00921F007018E
:100240008D46704710B50446AFF300802046BDE8E8
:100250001040FFF7A8BF000000487047380000209A
:1002600001491820ABBEFEE72600020070470000DF
:1002700088B00790069100200590049003900290AA
:10028000019000900698C07800F00F000590069845
:10029000C078C006002806D5FFE706988178059843
:1002A00008430590FFE70698007800284BD0FFE749
:1002B00007980068019000200390FFE70398072843
:1002C0003DD8FFE7039901208840029006980088F6
:1002D0000299084004900498029988422AD1FFE7C5
:1002E00003988000029002990F20884000900099A6
:1002F0000198884301900598029900FA01F101984C
:10030000084301900698C078282806D1FFE7039992
:1003100001208840079948610BE00698C07848287A
:1003200006D1FFE703990120884007990861FFE79C
:10033000FFE7FFE7FFE7039801300390BEE701986E
:1003400007990860FFE706980088B0F5807F50DBCA
:10035000FFE707984068019000200390FFE70398AB
:10036000072842D8FFE7039800F1080101208840E0
:100370000290069800880299084004900498029917
:1003800088422DD1FFE703988000029002990F2048
:10039000884000900099019888430190059802993F
:1003A00000FA01F10198084301900698C0782828C6
:1003B00008D1FFE7039800F1080101208840079960
:1003C0004861FFE70698C078482808D1FFE70398FE
:1003D00000F108010120884007990861FFE7FFE765
:1003E000FFE7039801300390B9E701980799486047
:1003F000FFE708B07047000082B00190ADF802102E
:1004000000208DF8010001988068BDF802100842B4
:1004100004D0FFE701208DF8010003E000208DF8F3
:100420000100FFE79DF8010002B0704782B0019023
:10043000ADF80210BDF802000199C86002B0704723
:1004400080B500F001F880BD84B0002003900290D8
:1004500041F20001C4F20201086840F480300860F3
:10046000FFE741F20000C4F20200006800F400302F
:100470000290039801300390FFE702990020019059
:1004800039B9FFE70398B0F5A06018BF01200190CB
:10049000FFE70198C0070028E3D1FFE741F2000021
:1004A000C4F2020000688003002803D5FFE70120A2
:1004B000029002E000200290FFE70298012851D14B
:1004C000FFE742F20001C4F20201086840F01000A8
:1004D0000860086820F007000860086840F0020023
:1004E000086041F20401C4F202010091086808604A
:1004F00008680860086840F480600860086820F4B4
:100500007C100860086840F4E810086041F20001BF
:10051000C4F20201086840F080700860FFE741F211
:100520000000C4F2020000688001002801D4FFE747
:10053000F5E741F20401C4F20201086820F003006B
:100540000860086840F002000860FFE741F204001C
:10055000C4F20200006800F00C00082801D0FFE798
:10056000F4E700E0FFE704B07047000080B541F217
:100570000002C4F20202106840F00100106041F273
:100580000401C4F2020108680023CFF6FF031840FB
:10059000086010684FF6FF73CFF6F66318401060DE
:1005A000106820F480201060086820F4FE000860C5
:1005B00041F20801C4F202014FF41F000860FFF786
:1005C0003FFF4EF60851CEF200014FF00060086088
:1005D00080BD000080B586B041F21801C4F202016E
:1005E0000C2008600020059040F2FF30ADF81400A8
:1005F000022002908DF81600102001908DF817004F
:1006000040F60000C4F20100039005A90491FFF731
:100610002FFE0198029A04994FF47043ADF81430FC
:100620008DF816208DF8170040F60040C4F2010046
:10063000FFF71EFE029A039804994FF4E063ADF8A9
:1006400014308DF8162048228DF81720FFF710FE81
:1006500006B080BD81B0009041F21C01C4F20201DD
:10066000086840F00100086040F20000C2F200009B
:10067000006844F6D351C1F26201A0FB01014FF0C2
:10068000FF3000EB91102821C4F20001088000988F
:100690002C21C4F2000108804FF08041088840F00E
:1006A00001000880FFE71020C4F200000088C007A6
:1006B00008B9FFE7F7E71021C4F20001088820F02D
:1006C000010008804FF08041088820F00100088078
:1006D00041F21C01C4F20201086820F00100086028
:1006E00001B0704780B582B000200190FFE701980B
:1006F00003281FDCFFE7019940F20400C2F200006A
:1007000030F8211040F60000C4F20100FFF78EFE21
:10071000019800F5805081B240F60040C4F201001B
:10072000FFF784FE1E20FFF795FFFFE701980130D9
:100730000190DCE702B080BD80B582B0002001905E
:10074000FFF748FFFFE740F60000C4F201004FF456
:100750008071FFF751FE40BBFFE74FF4FA70FFF7DF
:1007600079FFFFE740F60000C4F201004FF480710A
:10077000FFF742FEC0B9FFE74FF4FA70FFF76AFFD8
:1007800000F072F81E20FFF765FF40F61041C4F23A
:1007900001014FF40070086040F61441C4F20101F9
:1007A0004FF480700860DDE7FFE740F60000C4F218
:1007B00001004FF40071FFF71FFE38BBFFE7322046
:1007C000FFF748FFFFE740F60000C4F201004FF4D6
:1007D0000071FFF711FEC0B9FFE74FF4FA70FFF7A1
:1007E00039FFFFF77FFF1E20FFF734FF40F610416F
:1007F000C4F201014FF48070086040F61441C4F265
:1008000001014FF400700860DDE7FFE740F60000EB
:10081000C4F201004FF48061FFF7EEFD10BBFFE76B
:100820003220FFF717FFFFE740F60000C4F2010097
:100830004FF48061FFF7E0FD98B9FFE73220FFF742
:1008400009FF00F03BF81E20FFF704FF40F61441BB
:10085000C4F201014FF4807008604FF4007008602A
:10086000E2E7FFE76FE7000080B582B0002001906B
:10087000FFE7019803281FDCFFE7019940F214000D
:10088000C2F2000030F8211040F60000C4F201006E
:10089000FFF7CCFD019800F5805081B240F6004092
:1008A000C4F20100FFF7C2FD1E20FFF7D3FEFFE7F1
:1008B000019801300190DCE702B080BD80B582B0C4
:1008C00000200190FFE7019803281FDCFFE7019952
:1008D00040F22400C2F2000030F8211040F600007F
:1008E000C4F20100FFF7A2FD019800F5805081B22B
:1008F00040F60040C4F20100FFF798FD1E20FFF70C
:10090000A9FEFFE7019801300190DCE702B080BD4D
:1009100030090008000000203400000050010008E9
:10092000640900083800002060060000700100081B
:1009300000A24A040E0000004F0000004700000023
:100940000F00000046000000300000005F000000C3
:10095000370000005B0000000F0000007E00000078
:04096000670000002C
:04000005080001B539
:00000001FF
