:020000040000FA
:0400000000EF08F015
:020004000000FA
:0400080004EF08F009
:0400180006EF08F0F7
:0410000007EF08F0FE
:081008003DEF08F0100013ECAD
:1010100008F01EEC08F0610E006E2EEC08F034ECC7
:1010200008F00DEF08F00F0EC16E926A946A956A8F
:10103000FF0E936E900EF26E12001200C66A948E2E
:10104000949CE10EAF6E040EB06E240EAC6E900E4A
:10105000AB6E080EB86EAE50AE501200ACA22EEFC2
:1010600008F000C0ADFF12009EAA34EF08F0AECF2A
:0C10700000F0120012001200120010002C
:020000040030CA
:0100000024DB
:010001000EF0
:010002003FBE
:010003001EDE
:010005008179
:010006008178
:010008000FE8
:01000900C036
:01000A000FE6
:01000B00E014
:01000C000FE4
:01000D0040B2
:00000001FF
