:020000040800F2
:1000000098060020B5010008BD010008BF010008E6
:10001000C1010008C3010008C5010008000000007C
:10002000000000000000000000000000C701000800
:10003000C901000800000000CB010008CD01000844
:10004000CF010008CF010008CF010008CF01000850
:10005000CF010008CF010008CF010008CF01000840
:10006000CF010008CF010008CF010008CF01000830
:10007000CF010008CF010008CF010008CF01000820
:10008000CF010008CF010008CF010008CF01000810
:10009000CF010008CF010008CF010008ED020008E1
:1000A000CF010008CF010008CF010008CF010008F0
:1000B000CF010008CF010008CF010008CF010008E0
:1000C000CF010008CF010008CF010008CF010008D0
:1000D000CF010008CF010008CF010008CF010008C0
:1000E00071020008CF010008CF01000800F002F8FB
:1000F00000F050F814A696E8000CB244B344DA4578
:1001000001D100F047F8BAE80F000FA696E83000DA
:10011000A5EB040504EB0607AAEB0704A7F101070A
:100120004FEA15154FEA3414A4F10104AC4201D38F
:1001300000F030F813F0010F18BFFB1A43F0010371
:1001400000F001F8DBE71847B8080000D808000005
:10015000103A24BF78C878C1FAD8520724BF30C8F3
:1001600030C144BF04680C60704700007047000055
:100170000023002400250026103A28BF78C1FBD8B0
:10018000520728BF30C148BF0B6070471FB51FBD65
:1001900010B510BD00F031F81146FFF7F7FF00F081
:1001A0003FFB00F04FF803B4FFF7F2FF03BC00F091
:1001B00057F800000948804709480047FEE7FEE776
:1001C000FEE7FEE7FEE7FEE7FEE7FEE7FEE7FEE707
:1001D00004480549054A064B7047000071060008AF
:1001E000ED000008980000209806002098020020EA
:1001F00098020020704770477047754600F02CF851
:10020000AE4605006946534620F00700854618B003
:1002100020B5FFF7DDFFBDE820404FF000064FF0AE
:1002200000074FF000084FF0000BAC46ACE8C009E7
:10023000ACE8C009ACE8C009ACE8C00921F007018E
:100240008D46704710B50446AFF300802046BDE8E8
:100250001040FFF7A8BF00000048704720000020B2
:1002600001491820ABBEFEE72600020070470000DF
:1002700080B54FF4806000F055F8A0B1FFE740F280
:100280001441C4F20101086840F48060086040F243
:100290008801C2F200010020086040F29001C2F221
:1002A00000010860FFE74FF4006000F03BF8D8B1B0
:1002B000FFE740F21441C4F20101086840F4006015
:1002C000086040F28801C2F200010020086040F29C
:1002D0008002C2F200024FF0FF31116040F2900143
:1002E000C2F200010860FFE780BD000040F2144048
:1002F000C4F20100006810F0090F11D0FFE740F2CE
:100300001441C4F20101086840F40070086040F232
:100310008C01C2F200010868C0F101000860FFE72B
:100320007047000083B0029000208DF80700009015
:1003300040F20040C4F201000068029908400090B9
:1003400040F21440C4F2010000680299084207D04C
:10035000FFE7009820B1FFE701208DF8070003E0D8
:1003600000208DF80700FFE79DF8070003B07047F5
:1003700088B00790069100200590049003900290A9
:10038000019000900698C07800F00F000590069844
:10039000C078C006002806D5FFE706988178059842
:1003A00008430590FFE70698007800284BD0FFE748
:1003B00007980068019000200390FFE70398072842
:1003C0003DD8FFE7039901208840029006980088F5
:1003D0000299084004900498029988422AD1FFE7C4
:1003E00003988000029002990F20884000900099A5
:1003F0000198884301900598029900FA01F101984B
:10040000084301900698C078282806D1FFE7039991
:1004100001208840079948610BE00698C078482879
:1004200006D1FFE703990120884007990861FFE79B
:10043000FFE7FFE7FFE7039801300390BEE701986D
:1004400007990860FFE706980088B0F5807F50DBC9
:10045000FFE707984068019000200390FFE70398AA
:10046000072842D8FFE7039800F1080101208840DF
:100470000290069800880299084004900498029916
:1004800088422DD1FFE703988000029002990F2047
:10049000884000900099019888430190059802993E
:1004A00000FA01F10198084301900698C0782828C5
:1004B00008D1FFE7039800F108010120884007995F
:1004C0004861FFE70698C078482808D1FFE70398FD
:1004D00000F108010120884007990861FFE7FFE764
:1004E000FFE7039801300390B9E701980799486046
:1004F000FFE708B07047000082B00190ADF802102D
:10050000BDF802000199C86002B0704782B0019046
:100510008DF803109DF8030048B1FFE7019A41F2FE
:100520001801C4F2020108681043086008E0019A4B
:1005300041F21801C4F20201086890430860FFE725
:1005400002B0704780B500F001F880BD84B0002093
:100550000390029041F20001C4F20201086840F4E5
:1005600080300860FFE741F20000C4F2020000683A
:1005700000F400300290039801300390FFE70299E5
:100580000020019039B9FFE70398B0F5A06018BFCB
:1005900001200190FFE70198C0070028E3D1FFE7A1
:1005A00041F20000C4F2020000688003002803D575
:1005B000FFE70120029002E000200290FFE702988E
:1005C000012851D1FFE742F20001C4F2020108689C
:1005D00040F010000860086820F007000860086814
:1005E00040F00200086041F20401C4F202010091EF
:1005F0000868086008680860086840F4806008605F
:10060000086820F47C100860086840F4E81008606E
:1006100041F20001C4F20201086840F080700860F5
:10062000FFE741F20000C4F20200006880010028E8
:1006300001D4FFE7F5E741F20401C4F202010868C2
:1006400020F003000860086840F002000860FFE73F
:1006500041F20400C4F20200006800F00C00082817
:1006600001D0FFE7F4E700E0FFE704B070470000C7
:1006700080B541F20002C4F20202106840F00100AD
:10068000106041F20401C4F2020108680023CFF6B1
:10069000FF031840086010684FF6FF73CFF6F6634B
:1006A00018401060106820F480201060086820F462
:1006B000FE00086041F20801C4F202014FF41F007D
:1006C0000860FFF73FFF4EF60851CEF200014FF0F1
:1006D0000060086080BD000081B08DF803009DF9C6
:1006E000030000280ED4FFE79DF9031001F01F025C
:1006F000012090404A094EF20011CEF2000141F86B
:100700002200FFE701B0704780B586B00020059059
:10071000FF20ADF81400022002908DF81600102082
:1007200001908DF8170040F60000C4F2010005A901
:100730000491FFF71DFE0198029A04994FF470434B
:10074000ADF814308DF816208DF8170040F60040F3
:10075000C4F201000390FFF70BFE029A039804997C
:100760004FF46063ADF814308DF8162048228DF8F0
:100770001720FFF7FDFD06B080BD000080B50D20FD
:100780000121FFF7C3FE80BD80B584B01021C4F203
:1007900001010091086840F01000086040F200413B
:1007A000C4F201010191086840F40070086040F251
:1007B0000C41C4F201010291086840F40070086025
:1007C00017200390FFF788FFDDF800C0019B029A15
:1007D0000398DCF8001041F48071CCF8001019681F
:1007E00041F480611960116841F480611160FFF784
:1007F00073FFDDF800C0019B029A0398DCF800103B
:1008000041F48051CCF80010196841F4006119607E
:10081000116841F400611160FFF75EFF04B080BD14
:1008200080B582B000200190FFF7A8FFFFF7ACFF72
:10083000FFF76AFFFFE700F001F8FCE780B588B03A
:1008400040F28C00C2F20000026840F20001C2F2E5
:10085000000140F21000C2F20000002A08BF084662
:10086000079000200690FFE70698032836DCFFE794
:10087000069800F5805081B240F60040C4F20100B5
:10088000FFF73AFE0798069950F8210081B240F62A
:100890000000C4F20100FFF72FFE00200590FFE7E3
:1008A0000598B0F5FA5F05DCFFE7FFE70598013032
:1008B0000590F5E740F60000C4F201000021019127
:1008C000FFF71AFE019940F60040C4F20100FFF75D
:1008D00013FEFFE7069801300690C5E740F280005E
:1008E000C2F200000068002800F08780FFE7FFE701
:1008F00040F29000C2F20000006801286EDBFFE7C2
:100900004FF48050049040F28401C2F200010020B4
:100910000860FFE740F28400C2F20000006803288C
:1009200038DCFFE7049840F60C41C4F2010108608E
:10093000079840F28401C2F20001096840F288027F
:10094000C2F2000212681144CA1701EB927222F03F
:100950000302891A50F8210040F60C01C4F201018B
:10096000086000200390FFE70398B0F5FA5F05DC0C
:10097000FFE7FFE7039801300390F5E70498400094
:100980000490FFE740F28401C2F2000108680130E0
:100990000860BFE700200290FFE7029841F20021C3
:1009A000C0F27A01884205DCFFE7FFE702980130D8
:1009B0000290F2E740F28000C2F20000026840F2CA
:1009C0008801C2F2000108681044086040F29001FA
:1009D000C2F2000108680138086089E740F600406B
:1009E000C4F2010000210091FFF786FD009840F25B
:1009F0008001C2F200010860FFE708B080BD00007E
:100A0000200A00080000002020000000500100081B
:100A1000400A00082000002078060000700100084D
:100A2000370000007E0000000E000000770000008C
:100A3000710000004E000000300000006D0000005A
:04000005080001B539
:00000001FF
