:020000040000FA
:0400000000EF08F015
:020004000000FA
:0400080004EF08F009
:0400180006EF08F0F7
:0410000007EF08F0FE
:0810080094EF08F01000016AEA
:1010100014EC08F02AEC08F03AEC08F01EEC08F0AA
:101020006DEC08F00EEF08F00F0EC16E926A946A34
:10103000956AFF0E936E900EF26E120068EC08F047
:1010400000500F0B03E180921EEF08F0026E1008B3
:10105000036E1200C66A948E949CE10EAF6E040E6D
:10106000B06E240EAC6E900EAB6E080EB86EAE5025
:10107000AE5012009EAA3AEF08F068EC08F04B0E52
:1010800000625CEF08F00D0E006E62EC08F0480E96
:10109000006E62EC08F04F0E006E62EC08F04C0E31
:1010A000006E62EC08F0410E006E62EC08F0000E7B
:1010B000006E62EC08F012003F0E006E62EC08F069
:1010C0003AEF08F0ACA262EF08F000C0ADFF1200EA
:1010D0009EAA1200AECF00F0120002C004F080827F
:1010E0007AEC08F08092035004E003C004F07AEC3C
:1010F00008F01200080E056ED10E066E206E076E07
:1011000085EC08F00406F8E1120005C0D5FF06C022
:10111000D7FF07C0D6FFD58EF2A48CEF08F0F2946B
:10112000D59E120094EC08F00128000F0700016E14
:0811300001C083FFF2921000E0
:020000040030CA
:0100000024DB
:010001000EF0
:010002003FBE
:010003001EDE
:010005008179
:010006008178
:010008000FE8
:01000900C036
:01000A000FE6
:01000B00E014
:01000C000FE4
:01000D0040B2
:00000001FF
