:020000040800F2
:1000000080060020B5010008BD010008BF010008FE
:10001000C1010008C3010008C5010008000000007C
:10002000000000000000000000000000C701000800
:10003000C901000800000000CB010008CD01000844
:10004000CF010008CF010008CF010008CF01000850
:10005000CF010008CF010008CF010008CF01000840
:10006000CF010008CF010008CF010008CF01000830
:10007000CF010008CF010008CF010008CF01000820
:10008000CF010008CF010008CF010008CF01000810
:10009000CF010008CF010008CF010008D1020008FD
:1000A000CF010008CF010008CF010008CF010008F0
:1000B000CF010008CF010008CF010008CF010008E0
:1000C000CF010008CF010008CF010008CF010008D0
:1000D000CF010008CF010008CF010008CF010008C0
:1000E00071020008CF010008CF01000800F002F8FB
:1000F00000F050F814A696E8000CB244B344DA4578
:1001000001D100F047F8BAE80F000FA696E83000DA
:10011000A5EB040504EB0607AAEB0704A7F101070A
:100120004FEA15154FEA3414A4F10104AC4201D38F
:1001300000F030F813F0010F18BFFB1A43F0010371
:1001400000F001F8DBE7184774070000940700008F
:10015000103A24BF78C878C1FAD8520724BF30C8F3
:1001600030C144BF04680C60704700007047000055
:100170000023002400250026103A28BF78C1FBD8B0
:10018000520728BF30C148BF0B6070471FB51FBD65
:1001900010B510BD00F031F81146FFF7F7FF00F081
:1001A0005FFB00F04FF803B4FFF7F2FF03BC00F071
:1001B00057F800000948804709480047FEE7FEE776
:1001C000FEE7FEE7FEE7FEE7FEE7FEE7FEE7FEE707
:1001D00004480549054A064B70470000910600088F
:1001E000ED00000880000020800600208002002032
:1001F00080020020704770477047754600F02CF869
:10020000AE4605006946534620F00700854618B003
:1002100020B5FFF7DDFFBDE820404FF000064FF0AE
:1002200000074FF000084FF0000BAC46ACE8C009E7
:10023000ACE8C009ACE8C009ACE8C00921F007018E
:100240008D46704710B50446AFF300802046BDE8E8
:100250001040FFF7A8BF00000048704718000020BA
:1002600001491820ABBEFEE72600020070470000DF
:1002700080B54FF4806000F055F8B8B1FFE740F268
:100280007800C2F2000001680139016000680028AE
:1002900007D2FFE740F27801C2F2000105200860B2
:1002A000FFE74FF4806000F033F8FFE74FF40060A1
:1002B00000F038F858B1FFE740F27801C2F20001CF
:1002C000002008604FF4006000F022F8FFE780BDD6
:1002D00080B54FF4007000F025F8B8B1FFE740F2A8
:1002E0007800C2F200000168013101600068062850
:1002F00007D3FFE740F27801C2F200010020086056
:10030000FFE74FF4007000F003F8FFE780BD000046
:1003100081B00090009840F21441C4F201010860DD
:1003200001B0704783B0029000208DF80700009064
:1003300040F20040C4F201000068029908400090B9
:1003400040F21440C4F2010000680299084207D04C
:10035000FFE7009820B1FFE701208DF8070003E0D8
:1003600000208DF80700FFE79DF8070003B07047F5
:1003700088B00790069100200590049003900290A9
:10038000019000900698C07800F00F000590069844
:10039000C078C006002806D5FFE706988178059842
:1003A00008430590FFE70698007800284BD0FFE748
:1003B00007980068019000200390FFE70398072842
:1003C0003DD8FFE7039901208840029006980088F5
:1003D0000299084004900498029988422AD1FFE7C4
:1003E00003988000029002990F20884000900099A5
:1003F0000198884301900598029900FA01F101984B
:10040000084301900698C078282806D1FFE7039991
:1004100001208840079948610BE00698C078482879
:1004200006D1FFE703990120884007990861FFE79B
:10043000FFE7FFE7FFE7039801300390BEE701986D
:1004400007990860FFE706980088B0F5807F50DBC9
:10045000FFE707984068019000200390FFE70398AA
:10046000072842D8FFE7039800F1080101208840DF
:100470000290069800880299084004900498029916
:1004800088422DD1FFE703988000029002990F2047
:10049000884000900099019888430190059802993E
:1004A00000FA01F10198084301900698C0782828C5
:1004B00008D1FFE7039800F108010120884007995F
:1004C0004861FFE70698C078482808D1FFE70398FD
:1004D00000F108010120884007990861FFE7FFE764
:1004E000FFE7039801300390B9E701980799486046
:1004F000FFE708B07047000082B00190ADF802102D
:1005000000208DF8010001988068BDF802100842B3
:1005100004D0FFE701208DF8010003E000208DF8F2
:100520000100FFE79DF8010002B0704782B0019022
:100530008DF803109DF8030048B1FFE7019A41F2DE
:100540001801C4F2020108681043086008E0019A2B
:1005500041F21801C4F20201086890430860FFE705
:1005600002B0704780B500F001F880BD84B0002073
:100570000390029041F20001C4F20201086840F4C5
:1005800080300860FFE741F20000C4F2020000681A
:1005900000F400300290039801300390FFE70299C5
:1005A0000020019039B9FFE70398B0F5A06018BFAB
:1005B00001200190FFE70198C0070028E3D1FFE781
:1005C00041F20000C4F2020000688003002803D555
:1005D000FFE70120029002E000200290FFE702986E
:1005E000012851D1FFE742F20001C4F2020108687C
:1005F00040F010000860086820F0070008600868F4
:1006000040F00200086041F20401C4F202010091CE
:100610000868086008680860086840F4806008603E
:10062000086820F47C100860086840F4E81008604E
:1006300041F20001C4F20201086840F080700860D5
:10064000FFE741F20000C4F20200006880010028C8
:1006500001D4FFE7F5E741F20401C4F202010868A2
:1006600020F003000860086840F002000860FFE71F
:1006700041F20400C4F20200006800F00C000828F7
:1006800001D0FFE7F4E700E0FFE704B070470000A7
:1006900080B541F20002C4F20202106840F001008D
:1006A000106041F20401C4F2020108680023CFF691
:1006B000FF031840086010684FF6FF73CFF6F6632B
:1006C00018401060106820F480201060086820F442
:1006D000FE00086041F20801C4F202014FF41F005D
:1006E0000860FFF73FFF4EF60851CEF200014FF0D1
:1006F0000060086080BD000081B08DF803009DF9A6
:10070000030000280ED4FFE79DF9031001F01F023B
:10071000012090404A094EF20011CEF2000141F84A
:100720002200FFE701B0704780B586B00020059039
:10073000FF20ADF81400022002908DF81600102062
:1007400001908DF8170040F60000C4F2010005A9E1
:100750000491FFF70DFE0198029A04994FF470433B
:10076000ADF814308DF816208DF8170040F60040D3
:10077000C4F201000390FFF7FBFD029A039804996D
:100780004FF46063ADF814308DF8162048228DF8D0
:100790001720FFF7EDFD06B080BD000080B50C20EE
:1007A0000121FFF7C3FE80BD80B54EF21401CEF2E9
:1007B000000141F63F7008604EF21801CEF20001D0
:1007C000002008604EF21001CEF200010720086000
:1007D0004FF0FF30FFF790FF80BD000083B0029024
:1007E00040F60C41C4F2010108686FF31F30086045
:1007F00000200190FFE7019880BBFFE740F60C0165
:10080000C4F20101086800F47F40029A019B52F88B
:1008100023201043086040F60C41C4F2010108682F
:100820006FF31F30019A02F10C0301229A4010432A
:10083000086000200090FFE7009841F20021C0F21C
:100840007A01884205DCFFE7FFE70098013000905D
:10085000F2E7FFE7019801300190CCE703B0704761
:1008600080B582B000200190FFF798FFFFF79CFF52
:10087000FFF75AFFFFE740F60040C4F201004FF4D3
:100880000071FFF739FE18B9FFE7FFF721FDFFE719
:1008900040F60040C4F201004FF48061FFF72CFEE7
:1008A00018B9FFE7FFF7E4FCFFE740F20000C2F2EF
:1008B00000000C30FFF792FFDDE70000DC080008C5
:1008C000000000201800000050010008F408000893
:1008D00018000020680600007001000837000000C2
:1008E0007E0000000E000000770000000000000005
:0408F0000000000004
:04000005080001B539
:00000001FF
