:020000040000FA
:0400000000EF08F015
:020004000000FA
:1010000008EC08F00EEC08F01AEC08F002EF08F01B
:101010000F0EC16E926AFF0E936E12008150F00B9C
:1010200006E0106E103A10501008116E12008092F7
:101030000EEF08F010C012F0808225EC08F011C00D
:1010400012F0809225EC08F01200080E136E0D0EBF
:10105000146E200E156E30EC08F01206F8E1120046
:1010600013C0D5FF14C0D7FF15C0D6FFF2A436EFCA
:0810700008F0F294D59E120075
:020000040030CA
:0100000024DB
:010001000EF0
:010002003FBE
:010003001EDE
:010005008179
:010006008178
:010008000FE8
:01000900C036
:01000A000FE6
:01000B00E014
:01000C000FE4
:01000D0040B2
:00000001FF
