:020000040800F2
:10000000B0060020B5010008BD010008BF010008CE
:10001000C1010008C3010008C5010008000000007C
:10002000000000000000000000000000C701000800
:10003000C901000800000000CB010008CD01000844
:10004000CF010008CF010008CF010008CF01000850
:10005000CF010008CF010008CF010008CF01000840
:10006000CF010008CF010008CF010008CF01000830
:10007000CF010008CF010008CF010008CF01000820
:10008000CF010008CF010008CF010008CF01000810
:10009000CF010008CF010008CF010008CF01000800
:1000A000CF010008CF010008CF010008CF010008F0
:1000B000CF010008CF010008CF010008CF010008E0
:1000C000CF010008CF010008CF010008CF010008D0
:1000D000CF010008CF010008CF010008CF010008C0
:1000E000CF010008CF010008CF01000800F002F89E
:1000F00000F050F814A696E8000CB244B344DA4578
:1001000001D100F047F8BAE80F000FA696E83000DA
:10011000A5EB040504EB0607AAEB0704A7F101070A
:100120004FEA15154FEA3414A4F10104AC4201D38F
:1001300000F030F813F0010F18BFFB1A43F0010371
:1001400000F001F8DBE718471C0600003C06000041
:10015000103A24BF78C878C1FAD8520724BF30C8F3
:1001600030C144BF04680C60704700007047000055
:100170000023002400250026103A28BF78C1FBD8B0
:10018000520728BF30C148BF0B6070471FB51FBD65
:1001900010B510BD00F031F81146FFF7F7FF00F081
:1001A0009FF900F04FF803B4FFF7F2FF03BC00F033
:1001B00057F800000948804709480047FEE7FEE776
:1001C000FEE7FEE7FEE7FEE7FEE7FEE7FEE7FEE707
:1001D00004480549054A064B70470000E90300083A
:1001E000ED000008B0000020B0060020B0020020A2
:1001F000B0020020704770477047754600F02CF839
:10020000AE4605006946534620F00700854618B003
:1002100020B5FFF7DDFFBDE820404FF000064FF0AE
:1002200000074FF000084FF0000BAC46ACE8C009E7
:10023000ACE8C009ACE8C009ACE8C00921F007018E
:100240008D46704710B50446AFF300802046BDE8E8
:100250001040FFF7A8BF000000487047480000208A
:1002600001491820ABBEFEE72600020070470000DF
:1002700041F21801C4F202010C20086040F60001AE
:10028000C4F201014FF03330086040F60441C4F27B
:10029000010148F68800C3F23330086040F600419F
:1002A000C4F201014FF04050086040F60C41C4F226
:1002B00001014FF4786008607047000080B500F0DD
:1002C00001F880BD84B000200390029041F200014B
:1002D000C4F20201086840F480300860FFE741F290
:1002E0000000C4F20200006800F40030029003989D
:1002F00001300390FFE702990020019039B9FFE730
:100300000398B0F5A06018BF01200190FFE70198A5
:10031000C0070028E3D1FFE741F20000C4F2020069
:1003200000688003002803D5FFE70120029002E067
:1003300000200290FFE70298012851D1FFE742F226
:100340000001C4F20201086840F01000086008686B
:1003500020F007000860086840F00200086041F2E1
:100360000401C4F20201009108680860086808608E
:10037000086840F480600860086820F47C10086019
:10038000086840F4E810086041F20001C4F202017C
:10039000086840F080700860FFE741F20000C4F296
:1003A000020000688001002801D4FFE7F5E741F270
:1003B0000401C4F20201086820F003000860086824
:1003C00040F002000860FFE741F20400C4F20200BE
:1003D000006800F00C00082801D0FFE7F4E700E017
:1003E000FFE704B07047000080B541F20002C4F29C
:1003F0000202106840F00100106041F20401C4F2F2
:10040000020108680023CFF6FF0318400860106857
:100410004FF6FF73CFF6F66318401060106820F4B3
:1004200080201060086820F4FE00086041F2080196
:10043000C4F202014FF41F000860FFF73FFF4EF6C1
:100440000851CEF200014FF00060086080BD00004E
:1004500081B0009041F21C01C4F20201086840F032
:100460000100086040F20000C2F20000006844F69B
:10047000D351C1F26201A0FB01014FF0FF3000EB4C
:1004800091102821C4F20001088000982C21C4F2A8
:10049000000108804FF08041088840F0010008808A
:1004A000FFE71020C4F200000088C00708B9FFE78A
:1004B000F7E71021C4F20001088820F0010008804D
:1004C0004FF08041088820F00100088041F21C01B3
:1004D000C4F20201086820F00100086001B0704712
:1004E00080B582B000200190FFF7C2FEFFE740F622
:1004F0000C41C4F201014EF68070086040F60840DD
:10050000C4F201000068C005002807D4FFE740F2EC
:10051000A801C2F200010120086021E040F6084075
:10052000C4F2010000688005002807D4FFE740F20C
:10053000A801C2F200010420086010E040F6084063
:10054000C4F2010000684005002807D4FFE740F22C
:10055000A801C2F2000107200860FFE7FFE7FFE7FC
:1005600040F60840C4F2010000680005002807D4E6
:10057000FFE740F2A801C2F200010E200860FFE789
:1005800040F60C41C4F201014DF68070086040F65F
:100590000840C4F201000068C005002807D4FFE746
:1005A00040F2A801C2F200010220086032E040F6E9
:1005B0000840C4F2010000688005002807D4FFE766
:1005C00040F2A801C2F200010520086021E040F6D7
:1005D0000840C4F2010000684005002807D4FFE786
:1005E00040F2A801C2F200010820086010E040F6C5
:1005F0000840C4F2010000680005002807D4FFE7A6
:1006000040F2A801C2F2000100200860FFE7FFE706
:10061000FFE7FFE740F60C41C4F201014BF68070A2
:10062000086040F60840C4F201000068C0050028D8
:1006300007D4FFE740F2A801C2F2000103200860DE
:1006400021E040F60840C4F201000068800500285F
:1006500007D4FFE740F2A801C2F2000106200860BB
:1006600010E040F60840C4F2010000684005002890
:1006700007D4FFE740F2A801C2F200010920086098
:10068000FFE7FFE7FFE740F60840C4F2010000681B
:100690000005002807D4FFE740F2A801C2F20001DC
:1006A0000F200860FFE740F60C41C4F201014FF44F
:1006B000FF40086040F60840C4F201000068C00531
:1006C000002807D4FFE740F2A801C2F200010A2087
:1006D000086032E040F60840C4F20100006880057E
:1006E000002807D4FFE740F2A801C2F200010B2066
:1006F000086021E040F60840C4F2010000684005AF
:10070000002807D4FFE740F2A801C2F200010C2044
:10071000086010E040F60840C4F2010000680005DF
:10072000002807D4FFE740F2A801C2F200010D2023
:100730000860FFE7FFE7FFE7FFE740F2A800C2F22B
:100740000000016840F20400C2F2000050F82100ED
:1007500040F60C01C4F2010108601E20FFF778FE8C
:10076000C5E60000840700080000002044000000E7
:1007700050010008C8070008480000206806000073
:100780007001000800A24A047E0000004F00000033
:100790005B000000300000004F0000006D00000012
:1007A00077000000770000000F0000004F000000FD
:1007B000760000004E000000760000007600000089
:0807C000300000007900000088
:04000005080001B539
:00000001FF
